{
  "contractName": "CryptoGogos",
  "abi": [
    {
      "inputs": [],
      "stateMutability": "nonpayable",
      "type": "constructor"
    },
    {
      "anonymous": false,
      "inputs": [
        {
          "indexed": true,
          "internalType": "address",
          "name": "owner",
          "type": "address"
        },
        {
          "indexed": true,
          "internalType": "address",
          "name": "approved",
          "type": "address"
        },
        {
          "indexed": true,
          "internalType": "uint256",
          "name": "tokenId",
          "type": "uint256"
        }
      ],
      "name": "Approval",
      "type": "event"
    },
    {
      "anonymous": false,
      "inputs": [
        {
          "indexed": true,
          "internalType": "address",
          "name": "owner",
          "type": "address"
        },
        {
          "indexed": true,
          "internalType": "address",
          "name": "operator",
          "type": "address"
        },
        {
          "indexed": false,
          "internalType": "bool",
          "name": "approved",
          "type": "bool"
        }
      ],
      "name": "ApprovalForAll",
      "type": "event"
    },
    {
      "anonymous": false,
      "inputs": [
        {
          "indexed": true,
          "internalType": "address",
          "name": "previousOwner",
          "type": "address"
        },
        {
          "indexed": true,
          "internalType": "address",
          "name": "newOwner",
          "type": "address"
        }
      ],
      "name": "OwnershipTransferred",
      "type": "event"
    },
    {
      "anonymous": false,
      "inputs": [
        {
          "indexed": true,
          "internalType": "address",
          "name": "from",
          "type": "address"
        },
        {
          "indexed": true,
          "internalType": "address",
          "name": "to",
          "type": "address"
        },
        {
          "indexed": true,
          "internalType": "uint256",
          "name": "tokenId",
          "type": "uint256"
        }
      ],
      "name": "Transfer",
      "type": "event"
    },
    {
      "inputs": [
        {
          "internalType": "address",
          "name": "to",
          "type": "address"
        },
        {
          "internalType": "uint256",
          "name": "tokenId",
          "type": "uint256"
        }
      ],
      "name": "approve",
      "outputs": [],
      "stateMutability": "nonpayable",
      "type": "function"
    },
    {
      "inputs": [
        {
          "internalType": "address",
          "name": "owner",
          "type": "address"
        }
      ],
      "name": "balanceOf",
      "outputs": [
        {
          "internalType": "uint256",
          "name": "",
          "type": "uint256"
        }
      ],
      "stateMutability": "view",
      "type": "function",
      "constant": true
    },
    {
      "inputs": [],
      "name": "baseURI",
      "outputs": [
        {
          "internalType": "string",
          "name": "",
          "type": "string"
        }
      ],
      "stateMutability": "view",
      "type": "function",
      "constant": true
    },
    {
      "inputs": [
        {
          "internalType": "uint256",
          "name": "tokenId",
          "type": "uint256"
        }
      ],
      "name": "getApproved",
      "outputs": [
        {
          "internalType": "address",
          "name": "",
          "type": "address"
        }
      ],
      "stateMutability": "view",
      "type": "function",
      "constant": true
    },
    {
      "inputs": [
        {
          "internalType": "address",
          "name": "owner",
          "type": "address"
        },
        {
          "internalType": "address",
          "name": "operator",
          "type": "address"
        }
      ],
      "name": "isApprovedForAll",
      "outputs": [
        {
          "internalType": "bool",
          "name": "",
          "type": "bool"
        }
      ],
      "stateMutability": "view",
      "type": "function",
      "constant": true
    },
    {
      "inputs": [],
      "name": "name",
      "outputs": [
        {
          "internalType": "string",
          "name": "",
          "type": "string"
        }
      ],
      "stateMutability": "view",
      "type": "function",
      "constant": true
    },
    {
      "inputs": [],
      "name": "owner",
      "outputs": [
        {
          "internalType": "address",
          "name": "",
          "type": "address"
        }
      ],
      "stateMutability": "view",
      "type": "function",
      "constant": true
    },
    {
      "inputs": [
        {
          "internalType": "uint256",
          "name": "tokenId",
          "type": "uint256"
        }
      ],
      "name": "ownerOf",
      "outputs": [
        {
          "internalType": "address",
          "name": "",
          "type": "address"
        }
      ],
      "stateMutability": "view",
      "type": "function",
      "constant": true
    },
    {
      "inputs": [],
      "name": "renounceOwnership",
      "outputs": [],
      "stateMutability": "nonpayable",
      "type": "function"
    },
    {
      "inputs": [
        {
          "internalType": "address",
          "name": "from",
          "type": "address"
        },
        {
          "internalType": "address",
          "name": "to",
          "type": "address"
        },
        {
          "internalType": "uint256",
          "name": "tokenId",
          "type": "uint256"
        }
      ],
      "name": "safeTransferFrom",
      "outputs": [],
      "stateMutability": "nonpayable",
      "type": "function"
    },
    {
      "inputs": [
        {
          "internalType": "address",
          "name": "from",
          "type": "address"
        },
        {
          "internalType": "address",
          "name": "to",
          "type": "address"
        },
        {
          "internalType": "uint256",
          "name": "tokenId",
          "type": "uint256"
        },
        {
          "internalType": "bytes",
          "name": "_data",
          "type": "bytes"
        }
      ],
      "name": "safeTransferFrom",
      "outputs": [],
      "stateMutability": "nonpayable",
      "type": "function"
    },
    {
      "inputs": [
        {
          "internalType": "address",
          "name": "operator",
          "type": "address"
        },
        {
          "internalType": "bool",
          "name": "approved",
          "type": "bool"
        }
      ],
      "name": "setApprovalForAll",
      "outputs": [],
      "stateMutability": "nonpayable",
      "type": "function"
    },
    {
      "inputs": [
        {
          "internalType": "bytes4",
          "name": "interfaceId",
          "type": "bytes4"
        }
      ],
      "name": "supportsInterface",
      "outputs": [
        {
          "internalType": "bool",
          "name": "",
          "type": "bool"
        }
      ],
      "stateMutability": "view",
      "type": "function",
      "constant": true
    },
    {
      "inputs": [],
      "name": "symbol",
      "outputs": [
        {
          "internalType": "string",
          "name": "",
          "type": "string"
        }
      ],
      "stateMutability": "view",
      "type": "function",
      "constant": true
    },
    {
      "inputs": [
        {
          "internalType": "uint256",
          "name": "index",
          "type": "uint256"
        }
      ],
      "name": "tokenByIndex",
      "outputs": [
        {
          "internalType": "uint256",
          "name": "",
          "type": "uint256"
        }
      ],
      "stateMutability": "view",
      "type": "function",
      "constant": true
    },
    {
      "inputs": [
        {
          "internalType": "address",
          "name": "owner",
          "type": "address"
        },
        {
          "internalType": "uint256",
          "name": "index",
          "type": "uint256"
        }
      ],
      "name": "tokenOfOwnerByIndex",
      "outputs": [
        {
          "internalType": "uint256",
          "name": "",
          "type": "uint256"
        }
      ],
      "stateMutability": "view",
      "type": "function",
      "constant": true
    },
    {
      "inputs": [
        {
          "internalType": "uint256",
          "name": "tokenId",
          "type": "uint256"
        }
      ],
      "name": "tokenURI",
      "outputs": [
        {
          "internalType": "string",
          "name": "",
          "type": "string"
        }
      ],
      "stateMutability": "view",
      "type": "function",
      "constant": true
    },
    {
      "inputs": [
        {
          "internalType": "uint256",
          "name": "",
          "type": "uint256"
        }
      ],
      "name": "tokeninfo",
      "outputs": [
        {
          "internalType": "string",
          "name": "name",
          "type": "string"
        },
        {
          "internalType": "string",
          "name": "cat",
          "type": "string"
        },
        {
          "internalType": "uint256",
          "name": "card_id",
          "type": "uint256"
        },
        {
          "internalType": "string",
          "name": "description",
          "type": "string"
        },
        {
          "internalType": "string",
          "name": "image_url",
          "type": "string"
        },
        {
          "internalType": "string",
          "name": "tokenuri",
          "type": "string"
        }
      ],
      "stateMutability": "view",
      "type": "function",
      "constant": true
    },
    {
      "inputs": [
        {
          "internalType": "address",
          "name": "from",
          "type": "address"
        },
        {
          "internalType": "address",
          "name": "to",
          "type": "address"
        },
        {
          "internalType": "uint256",
          "name": "tokenId",
          "type": "uint256"
        }
      ],
      "name": "transferFrom",
      "outputs": [],
      "stateMutability": "nonpayable",
      "type": "function"
    },
    {
      "inputs": [
        {
          "internalType": "address",
          "name": "newOwner",
          "type": "address"
        }
      ],
      "name": "transferOwnership",
      "outputs": [],
      "stateMutability": "nonpayable",
      "type": "function"
    },
    {
      "inputs": [],
      "name": "drawCard",
      "outputs": [],
      "stateMutability": "nonpayable",
      "type": "function"
    },
    {
      "inputs": [
        {
          "internalType": "uint256",
          "name": "_tokenid",
          "type": "uint256"
        }
      ],
      "name": "viewCategory",
      "outputs": [
        {
          "internalType": "string",
          "name": "",
          "type": "string"
        }
      ],
      "stateMutability": "view",
      "type": "function",
      "constant": true
    },
    {
      "inputs": [],
      "name": "viewNumberofCards",
      "outputs": [
        {
          "internalType": "uint256",
          "name": "",
          "type": "uint256"
        }
      ],
      "stateMutability": "view",
      "type": "function",
      "constant": true
    },
    {
      "inputs": [
        {
          "internalType": "uint256",
          "name": "_tokenid",
          "type": "uint256"
        }
      ],
      "name": "viewName",
      "outputs": [
        {
          "internalType": "string",
          "name": "",
          "type": "string"
        }
      ],
      "stateMutability": "view",
      "type": "function",
      "constant": true
    },
    {
      "inputs": [
        {
          "internalType": "uint256",
          "name": "_tokenid",
          "type": "uint256"
        }
      ],
      "name": "viewDescription",
      "outputs": [
        {
          "internalType": "string",
          "name": "",
          "type": "string"
        }
      ],
      "stateMutability": "view",
      "type": "function",
      "constant": true
    },
    {
      "inputs": [
        {
          "internalType": "uint256",
          "name": "_tokenid",
          "type": "uint256"
        }
      ],
      "name": "viewImageUrl",
      "outputs": [
        {
          "internalType": "string",
          "name": "",
          "type": "string"
        }
      ],
      "stateMutability": "view",
      "type": "function",
      "constant": true
    },
    {
      "inputs": [
        {
          "internalType": "uint256",
          "name": "_tokenid",
          "type": "uint256"
        }
      ],
      "name": "viewtokenURI",
      "outputs": [
        {
          "internalType": "string",
          "name": "",
          "type": "string"
        }
      ],
      "stateMutability": "view",
      "type": "function",
      "constant": true
    },
    {
      "inputs": [],
      "name": "totalSupply",
      "outputs": [
        {
          "internalType": "uint256",
          "name": "",
          "type": "uint256"
        }
      ],
      "stateMutability": "view",
      "type": "function",
      "constant": true
    }
  ],
  "bytecode": "0x60806040523480156200001157600080fd5b506040518060400160405280600b81526020017f43727970746f476f676f730000000000000000000000000000000000000000008152506040518060400160405280600381526020017f43474700000000000000000000000000000000000000000000000000000000008152506000620000906200020960201b60201c565b9050806000806101000a81548173ffffffffffffffffffffffffffffffffffffffff021916908373ffffffffffffffffffffffffffffffffffffffff1602179055508073ffffffffffffffffffffffffffffffffffffffff16600073ffffffffffffffffffffffffffffffffffffffff167f8be0079c531659141344cd1fd0a4f28419497f9722a3daafe3b4186f6b6457e060405160405180910390a350620001466301ffc9a760e01b6200021160201b60201c565b81600790805190602001906200015e9291906200031a565b508060089080519060200190620001779291906200031a565b50620001906380ac58cd60e01b6200021160201b60201c565b620001a8635b5e139f60e01b6200021160201b60201c565b620001c063780e9d6360e01b6200021160201b60201c565b505033600d60006101000a81548173ffffffffffffffffffffffffffffffffffffffff021916908373ffffffffffffffffffffffffffffffffffffffff160217905550620003c9565b600033905090565b63ffffffff60e01b817bffffffffffffffffffffffffffffffffffffffffffffffffffffffff19161415620002ae576040517f08c379a000000000000000000000000000000000000000000000000000000000815260040180806020018281038252601c8152602001807f4552433136353a20696e76616c696420696e746572666163652069640000000081525060200191505060405180910390fd5b6001806000837bffffffffffffffffffffffffffffffffffffffffffffffffffffffff19167bffffffffffffffffffffffffffffffffffffffffffffffffffffffff1916815260200190815260200160002060006101000a81548160ff02191690831515021790555050565b828054600181600116156101000203166002900490600052602060002090601f016020900481019282601f106200035d57805160ff19168380011785556200038e565b828001600101855582156200038e579182015b828111156200038d57825182559160200191906001019062000370565b5b5090506200039d9190620003a1565b5090565b620003c691905b80821115620003c2576000816000905550600101620003a8565b5090565b90565b61427880620003d96000396000f3fe608060405234801561001057600080fd5b50600436106101c45760003560e01c80636352211e116100f9578063a22cb46511610097578063d3fedae511610071578063d3fedae514610da2578063e985e9c514610e49578063f2fde38b14610ec5578063ff93616414610f09576101c4565b8063a22cb46514610ba6578063b88d4fde14610bf6578063c87b56dd14610cfb576101c4565b806370a08231116100d357806370a0823114610a77578063715018a614610acf5780638da5cb5b14610ad957806395d89b4114610b23576101c4565b80636352211e146108df57806363b9ae341461094d5780636c0360eb146109f4576101c4565b80631b868d00116101665780632f745c59116101405780632f745c591461072657806342842e0e146107885780634f5f44ec146107f65780634f6ccce71461089d576101c4565b80631b868d001461060757806323b872dd146106ae5780632f5be23e1461071c576101c4565b806308374fbc116101a257806308374fbc1461031f578063095ea7b31461033d5780630a890abb1461038b57806318160ddd146105e9576101c4565b806301ffc9a7146101c957806306fdde031461022e578063081812fc146102b1575b600080fd5b610214600480360360208110156101df57600080fd5b8101908080357bffffffffffffffffffffffffffffffffffffffffffffffffffffffff19169060200190929190505050610fb0565b604051808215151515815260200191505060405180910390f35b610236611018565b6040518080602001828103825283818151815260200191508051906020019080838360005b8381101561027657808201518184015260208101905061025b565b50505050905090810190601f1680156102a35780820380516001836020036101000a031916815260200191505b509250505060405180910390f35b6102dd600480360360208110156102c757600080fd5b81019080803590602001909291905050506110ba565b604051808273ffffffffffffffffffffffffffffffffffffffff1673ffffffffffffffffffffffffffffffffffffffff16815260200191505060405180910390f35b610327611155565b6040518082815260200191505060405180910390f35b6103896004803603604081101561035357600080fd5b81019080803573ffffffffffffffffffffffffffffffffffffffff16906020019092919080359060200190929190505050611166565b005b6103b7600480360360208110156103a157600080fd5b81019080803590602001909291905050506112aa565b60405180806020018060200187815260200180602001806020018060200186810386528c818151815260200191508051906020019080838360005b8381101561040d5780820151818401526020810190506103f2565b50505050905090810190601f16801561043a5780820380516001836020036101000a031916815260200191505b5086810385528b818151815260200191508051906020019080838360005b83811015610473578082015181840152602081019050610458565b50505050905090810190601f1680156104a05780820380516001836020036101000a031916815260200191505b50868103845289818151815260200191508051906020019080838360005b838110156104d95780820151818401526020810190506104be565b50505050905090810190601f1680156105065780820380516001836020036101000a031916815260200191505b50868103835288818151815260200191508051906020019080838360005b8381101561053f578082015181840152602081019050610524565b50505050905090810190601f16801561056c5780820380516001836020036101000a031916815260200191505b50868103825287818151815260200191508051906020019080838360005b838110156105a557808201518184015260208101905061058a565b50505050905090810190601f1680156105d25780820380516001836020036101000a031916815260200191505b509b50505050505050505050505060405180910390f35b6105f16115de565b6040518082815260200191505060405180910390f35b6106336004803603602081101561061d57600080fd5b81019080803590602001909291905050506115ef565b6040518080602001828103825283818151815260200191508051906020019080838360005b83811015610673578082015181840152602081019050610658565b50505050905090810190601f1680156106a05780820380516001836020036101000a031916815260200191505b509250505060405180910390f35b61071a600480360360608110156106c457600080fd5b81019080803573ffffffffffffffffffffffffffffffffffffffff169060200190929190803573ffffffffffffffffffffffffffffffffffffffff169060200190929190803590602001909291905050506116a7565b005b61072461171d565b005b6107726004803603604081101561073c57600080fd5b81019080803573ffffffffffffffffffffffffffffffffffffffff169060200190929190803590602001909291905050506119f9565b6040518082815260200191505060405180910390f35b6107f46004803603606081101561079e57600080fd5b81019080803573ffffffffffffffffffffffffffffffffffffffff169060200190929190803573ffffffffffffffffffffffffffffffffffffffff16906020019092919080359060200190929190505050611a54565b005b6108226004803603602081101561080c57600080fd5b8101908080359060200190929190505050611a74565b6040518080602001828103825283818151815260200191508051906020019080838360005b83811015610862578082015181840152602081019050610847565b50505050905090810190601f16801561088f5780820380516001836020036101000a031916815260200191505b509250505060405180910390f35b6108c9600480360360208110156108b357600080fd5b8101908080359060200190929190505050611b2c565b6040518082815260200191505060405180910390f35b61090b600480360360208110156108f557600080fd5b8101908080359060200190929190505050611b4f565b604051808273ffffffffffffffffffffffffffffffffffffffff1673ffffffffffffffffffffffffffffffffffffffff16815260200191505060405180910390f35b6109796004803603602081101561096357600080fd5b8101908080359060200190929190505050611b86565b6040518080602001828103825283818151815260200191508051906020019080838360005b838110156109b957808201518184015260208101905061099e565b50505050905090810190601f1680156109e65780820380516001836020036101000a031916815260200191505b509250505060405180910390f35b6109fc611c3e565b6040518080602001828103825283818151815260200191508051906020019080838360005b83811015610a3c578082015181840152602081019050610a21565b50505050905090810190601f168015610a695780820380516001836020036101000a031916815260200191505b509250505060405180910390f35b610ab960048036036020811015610a8d57600080fd5b81019080803573ffffffffffffffffffffffffffffffffffffffff169060200190929190505050611ce0565b6040518082815260200191505060405180910390f35b610ad7611db5565b005b610ae1611f23565b604051808273ffffffffffffffffffffffffffffffffffffffff1673ffffffffffffffffffffffffffffffffffffffff16815260200191505060405180910390f35b610b2b611f4c565b6040518080602001828103825283818151815260200191508051906020019080838360005b83811015610b6b578082015181840152602081019050610b50565b50505050905090810190601f168015610b985780820380516001836020036101000a031916815260200191505b509250505060405180910390f35b610bf460048036036040811015610bbc57600080fd5b81019080803573ffffffffffffffffffffffffffffffffffffffff169060200190929190803515159060200190929190505050611fee565b005b610cf960048036036080811015610c0c57600080fd5b81019080803573ffffffffffffffffffffffffffffffffffffffff169060200190929190803573ffffffffffffffffffffffffffffffffffffffff1690602001909291908035906020019092919080359060200190640100000000811115610c7357600080fd5b820183602082011115610c8557600080fd5b80359060200191846001830284011164010000000083111715610ca757600080fd5b91908080601f016020809104026020016040519081016040528093929190818152602001838380828437600081840152601f19601f8201169050808301925050505050505091929192905050506121a6565b005b610d2760048036036020811015610d1157600080fd5b810190808035906020019092919050505061221e565b6040518080602001828103825283818151815260200191508051906020019080838360005b83811015610d67578082015181840152602081019050610d4c565b50505050905090810190601f168015610d945780820380516001836020036101000a031916815260200191505b509250505060405180910390f35b610dce60048036036020811015610db857600080fd5b81019080803590602001909291905050506124ef565b6040518080602001828103825283818151815260200191508051906020019080838360005b83811015610e0e578082015181840152602081019050610df3565b50505050905090810190601f168015610e3b5780820380516001836020036101000a031916815260200191505b509250505060405180910390f35b610eab60048036036040811015610e5f57600080fd5b81019080803573ffffffffffffffffffffffffffffffffffffffff169060200190929190803573ffffffffffffffffffffffffffffffffffffffff1690602001909291905050506125a7565b604051808215151515815260200191505060405180910390f35b610f0760048036036020811015610edb57600080fd5b81019080803573ffffffffffffffffffffffffffffffffffffffff16906020019092919050505061263b565b005b610f3560048036036020811015610f1f57600080fd5b810190808035906020019092919050505061282e565b6040518080602001828103825283818151815260200191508051906020019080838360005b83811015610f75578082015181840152602081019050610f5a565b50505050905090810190601f168015610fa25780820380516001836020036101000a031916815260200191505b509250505060405180910390f35b600060016000837bffffffffffffffffffffffffffffffffffffffffffffffffffffffff19167bffffffffffffffffffffffffffffffffffffffffffffffffffffffff1916815260200190815260200160002060009054906101000a900460ff169050919050565b606060078054600181600116156101000203166002900480601f0160208091040260200160405190810160405280929190818152602001828054600181600116156101000203166002900480156110b05780601f10611085576101008083540402835291602001916110b0565b820191906000526020600020905b81548152906001019060200180831161109357829003601f168201915b5050505050905090565b60006110c5826128e6565b61111a576040517f08c379a000000000000000000000000000000000000000000000000000000000815260040180806020018281038252602c815260200180614141602c913960400191505060405180910390fd5b6005600083815260200190815260200160002060009054906101000a900473ffffffffffffffffffffffffffffffffffffffff169050919050565b6000611161600b612903565b905090565b600061117182611b4f565b90508073ffffffffffffffffffffffffffffffffffffffff168373ffffffffffffffffffffffffffffffffffffffff1614156111f8576040517f08c379a00000000000000000000000000000000000000000000000000000000081526004018080602001828103825260218152602001806141f16021913960400191505060405180910390fd5b8073ffffffffffffffffffffffffffffffffffffffff16611217612911565b73ffffffffffffffffffffffffffffffffffffffff161480611246575061124581611240612911565b6125a7565b5b61129b576040517f08c379a00000000000000000000000000000000000000000000000000000000081526004018080602001828103825260388152602001806140946038913960400191505060405180910390fd5b6112a58383612919565b505050565b600f602052806000526040600020600091509050806000018054600181600116156101000203166002900480601f0160208091040260200160405190810160405280929190818152602001828054600181600116156101000203166002900480156113565780601f1061132b57610100808354040283529160200191611356565b820191906000526020600020905b81548152906001019060200180831161133957829003601f168201915b505050505090806001018054600181600116156101000203166002900480601f0160208091040260200160405190810160405280929190818152602001828054600181600116156101000203166002900480156113f45780601f106113c9576101008083540402835291602001916113f4565b820191906000526020600020905b8154815290600101906020018083116113d757829003601f168201915b505050505090806002015490806003018054600181600116156101000203166002900480601f0160208091040260200160405190810160405280929190818152602001828054600181600116156101000203166002900480156114985780601f1061146d57610100808354040283529160200191611498565b820191906000526020600020905b81548152906001019060200180831161147b57829003601f168201915b505050505090806004018054600181600116156101000203166002900480601f0160208091040260200160405190810160405280929190818152602001828054600181600116156101000203166002900480156115365780601f1061150b57610100808354040283529160200191611536565b820191906000526020600020905b81548152906001019060200180831161151957829003601f168201915b505050505090806005018054600181600116156101000203166002900480601f0160208091040260200160405190810160405280929190818152602001828054600181600116156101000203166002900480156115d45780601f106115a9576101008083540402835291602001916115d4565b820191906000526020600020905b8154815290600101906020018083116115b757829003601f168201915b5050505050905086565b60006115ea600b612903565b905090565b6060600f60008381526020019081526020016000206000018054600181600116156101000203166002900480601f01602080910402602001604051908101604052809291908181526020018280546001816001161561010002031660029004801561169b5780601f106116705761010080835404028352916020019161169b565b820191906000526020600020905b81548152906001019060200180831161167e57829003601f168201915b50505050509050919050565b6116b86116b2612911565b826129d2565b61170d576040517f08c379a00000000000000000000000000000000000000000000000000000000081526004018080602001828103825260318152602001806142126031913960400191505060405180910390fd5b611718838383612ac6565b505050565b611727600b612d09565b6000611733600b612903565b905061173d613e48565b818160400181815250506060806060806060611757612d1f565b9450945094509450945083866000018190525084600c9080519060200190611780929190613e7e565b50848660a00181905250828660600181905250818660200181905250808660800181905250600e86908060018154018082558091505060019003906000526020600020906006020160009091909190915060008201518160000190805190602001906117ed929190613efe565b50602082015181600101908051906020019061180a929190613efe565b50604082015181600201556060820151816003019080519060200190611831929190613efe565b50608082015181600401908051906020019061184e929190613efe565b5060a082015181600501908051906020019061186b929190613efe565b50505085600f6000898152602001908152602001600020600082015181600001908051906020019061189e929190613efe565b5060208201518160010190805190602001906118bb929190613efe565b506040820151816002015560608201518160030190805190602001906118e2929190613efe565b5060808201518160040190805190602001906118ff929190613efe565b5060a082015181600501908051906020019061191c929190613efe565b5090505061194c600d60009054906101000a900473ffffffffffffffffffffffffffffffffffffffff1688612e63565b6119f087600c8054600181600116156101000203166002900480601f0160208091040260200160405190810160405280929190818152602001828054600181600116156101000203166002900480156119e65780601f106119bb576101008083540402835291602001916119e6565b820191906000526020600020905b8154815290600101906020018083116119c957829003601f168201915b5050505050612f30565b50505050505050565b6000611a4c82600260008673ffffffffffffffffffffffffffffffffffffffff1673ffffffffffffffffffffffffffffffffffffffff168152602001908152602001600020612fba90919063ffffffff16565b905092915050565b611a6f838383604051806020016040528060008152506121a6565b505050565b6060600f60008381526020019081526020016000206001018054600181600116156101000203166002900480601f016020809104026020016040519081016040528092919081815260200182805460018160011615610100020316600290048015611b205780601f10611af557610100808354040283529160200191611b20565b820191906000526020600020905b815481529060010190602001808311611b0357829003601f168201915b50505050509050919050565b600080611b43836003612fd490919063ffffffff16565b50905080915050919050565b6000611b7f826040518060600160405280602981526020016140f66029913960036130039092919063ffffffff16565b9050919050565b6060600f60008381526020019081526020016000206004018054600181600116156101000203166002900480601f016020809104026020016040519081016040528092919081815260200182805460018160011615610100020316600290048015611c325780601f10611c0757610100808354040283529160200191611c32565b820191906000526020600020905b815481529060010190602001808311611c1557829003601f168201915b50505050509050919050565b6060600a8054600181600116156101000203166002900480601f016020809104026020016040519081016040528092919081815260200182805460018160011615610100020316600290048015611cd65780601f10611cab57610100808354040283529160200191611cd6565b820191906000526020600020905b815481529060010190602001808311611cb957829003601f168201915b5050505050905090565b60008073ffffffffffffffffffffffffffffffffffffffff168273ffffffffffffffffffffffffffffffffffffffff161415611d67576040517f08c379a000000000000000000000000000000000000000000000000000000000815260040180806020018281038252602a8152602001806140cc602a913960400191505060405180910390fd5b611dae600260008473ffffffffffffffffffffffffffffffffffffffff1673ffffffffffffffffffffffffffffffffffffffff168152602001908152602001600020613022565b9050919050565b611dbd612911565b73ffffffffffffffffffffffffffffffffffffffff16611ddb611f23565b73ffffffffffffffffffffffffffffffffffffffff1614611e64576040517f08c379a00000000000000000000000000000000000000000000000000000000081526004018080602001828103825260208152602001807f4f776e61626c653a2063616c6c6572206973206e6f7420746865206f776e657281525060200191505060405180910390fd5b600073ffffffffffffffffffffffffffffffffffffffff166000809054906101000a900473ffffffffffffffffffffffffffffffffffffffff1673ffffffffffffffffffffffffffffffffffffffff167f8be0079c531659141344cd1fd0a4f28419497f9722a3daafe3b4186f6b6457e060405160405180910390a360008060006101000a81548173ffffffffffffffffffffffffffffffffffffffff021916908373ffffffffffffffffffffffffffffffffffffffff160217905550565b60008060009054906101000a900473ffffffffffffffffffffffffffffffffffffffff16905090565b606060088054600181600116156101000203166002900480601f016020809104026020016040519081016040528092919081815260200182805460018160011615610100020316600290048015611fe45780601f10611fb957610100808354040283529160200191611fe4565b820191906000526020600020905b815481529060010190602001808311611fc757829003601f168201915b5050505050905090565b611ff6612911565b73ffffffffffffffffffffffffffffffffffffffff168273ffffffffffffffffffffffffffffffffffffffff161415612097576040517f08c379a00000000000000000000000000000000000000000000000000000000081526004018080602001828103825260198152602001807f4552433732313a20617070726f766520746f2063616c6c65720000000000000081525060200191505060405180910390fd5b80600660006120a4612911565b73ffffffffffffffffffffffffffffffffffffffff1673ffffffffffffffffffffffffffffffffffffffff16815260200190815260200160002060008473ffffffffffffffffffffffffffffffffffffffff1673ffffffffffffffffffffffffffffffffffffffff16815260200190815260200160002060006101000a81548160ff0219169083151502179055508173ffffffffffffffffffffffffffffffffffffffff16612151612911565b73ffffffffffffffffffffffffffffffffffffffff167f17307eab39ab6107e8899845ad3d59bd9653f200f220920489ca2b5937696c3183604051808215151515815260200191505060405180910390a35050565b6121b76121b1612911565b836129d2565b61220c576040517f08c379a00000000000000000000000000000000000000000000000000000000081526004018080602001828103825260318152602001806142126031913960400191505060405180910390fd5b61221884848484613037565b50505050565b6060612229826128e6565b61227e576040517f08c379a000000000000000000000000000000000000000000000000000000000815260040180806020018281038252602f8152602001806141c2602f913960400191505060405180910390fd5b6060600960008481526020019081526020016000208054600181600116156101000203166002900480601f0160208091040260200160405190810160405280929190818152602001828054600181600116156101000203166002900480156123275780601f106122fc57610100808354040283529160200191612327565b820191906000526020600020905b81548152906001019060200180831161230a57829003601f168201915b505050505090506060612338611c3e565b905060008151141561234e5781925050506124ea565b60008251111561241f5780826040516020018083805190602001908083835b60208310612390578051825260208201915060208101905060208303925061236d565b6001836020036101000a03801982511681845116808217855250505050505090500182805190602001908083835b602083106123e157805182526020820191506020810190506020830392506123be565b6001836020036101000a03801982511681845116808217855250505050505090500192505050604051602081830303815290604052925050506124ea565b80612429856130a9565b6040516020018083805190602001908083835b6020831061245f578051825260208201915060208101905060208303925061243c565b6001836020036101000a03801982511681845116808217855250505050505090500182805190602001908083835b602083106124b0578051825260208201915060208101905060208303925061248d565b6001836020036101000a03801982511681845116808217855250505050505090500192505050604051602081830303815290604052925050505b919050565b6060600f60008381526020019081526020016000206004018054600181600116156101000203166002900480601f01602080910402602001604051908101604052809291908181526020018280546001816001161561010002031660029004801561259b5780601f106125705761010080835404028352916020019161259b565b820191906000526020600020905b81548152906001019060200180831161257e57829003601f168201915b50505050509050919050565b6000600660008473ffffffffffffffffffffffffffffffffffffffff1673ffffffffffffffffffffffffffffffffffffffff16815260200190815260200160002060008373ffffffffffffffffffffffffffffffffffffffff1673ffffffffffffffffffffffffffffffffffffffff16815260200190815260200160002060009054906101000a900460ff16905092915050565b612643612911565b73ffffffffffffffffffffffffffffffffffffffff16612661611f23565b73ffffffffffffffffffffffffffffffffffffffff16146126ea576040517f08c379a00000000000000000000000000000000000000000000000000000000081526004018080602001828103825260208152602001807f4f776e61626c653a2063616c6c6572206973206e6f7420746865206f776e657281525060200191505060405180910390fd5b600073ffffffffffffffffffffffffffffffffffffffff168173ffffffffffffffffffffffffffffffffffffffff161415612770576040517f08c379a0000000000000000000000000000000000000000000000000000000008152600401808060200182810382526026815260200180613ff86026913960400191505060405180910390fd5b8073ffffffffffffffffffffffffffffffffffffffff166000809054906101000a900473ffffffffffffffffffffffffffffffffffffffff1673ffffffffffffffffffffffffffffffffffffffff167f8be0079c531659141344cd1fd0a4f28419497f9722a3daafe3b4186f6b6457e060405160405180910390a3806000806101000a81548173ffffffffffffffffffffffffffffffffffffffff021916908373ffffffffffffffffffffffffffffffffffffffff16021790555050565b6060600f60008381526020019081526020016000206003018054600181600116156101000203166002900480601f0160208091040260200160405190810160405280929190818152602001828054600181600116156101000203166002900480156128da5780601f106128af576101008083540402835291602001916128da565b820191906000526020600020905b8154815290600101906020018083116128bd57829003601f168201915b50505050509050919050565b60006128fc8260036131d990919063ffffffff16565b9050919050565b600081600001549050919050565b600033905090565b816005600083815260200190815260200160002060006101000a81548173ffffffffffffffffffffffffffffffffffffffff021916908373ffffffffffffffffffffffffffffffffffffffff160217905550808273ffffffffffffffffffffffffffffffffffffffff1661298c83611b4f565b73ffffffffffffffffffffffffffffffffffffffff167f8c5be1e5ebec7d5bd14f71427d1e84f3dd0314c0f7b2291e5b200ac8c7c3b92560405160405180910390a45050565b60006129dd826128e6565b612a32576040517f08c379a000000000000000000000000000000000000000000000000000000000815260040180806020018281038252602c815260200180614068602c913960400191505060405180910390fd5b6000612a3d83611b4f565b90508073ffffffffffffffffffffffffffffffffffffffff168473ffffffffffffffffffffffffffffffffffffffff161480612aac57508373ffffffffffffffffffffffffffffffffffffffff16612a94846110ba565b73ffffffffffffffffffffffffffffffffffffffff16145b80612abd5750612abc81856125a7565b5b91505092915050565b8273ffffffffffffffffffffffffffffffffffffffff16612ae682611b4f565b73ffffffffffffffffffffffffffffffffffffffff1614612b52576040517f08c379a00000000000000000000000000000000000000000000000000000000081526004018080602001828103825260298152602001806141996029913960400191505060405180910390fd5b600073ffffffffffffffffffffffffffffffffffffffff168273ffffffffffffffffffffffffffffffffffffffff161415612bd8576040517f08c379a000000000000000000000000000000000000000000000000000000000815260040180806020018281038252602481526020018061401e6024913960400191505060405180910390fd5b612be38383836131f3565b612bee600082612919565b612c3f81600260008673ffffffffffffffffffffffffffffffffffffffff1673ffffffffffffffffffffffffffffffffffffffff1681526020019081526020016000206131f890919063ffffffff16565b50612c9181600260008573ffffffffffffffffffffffffffffffffffffffff1673ffffffffffffffffffffffffffffffffffffffff16815260200190815260200160002061321290919063ffffffff16565b50612ca88183600361322c9092919063ffffffff16565b50808273ffffffffffffffffffffffffffffffffffffffff168473ffffffffffffffffffffffffffffffffffffffff167fddf252ad1be2c89b69c2b068fc378daa952ba7f163c4a11628f55a4df523b3ef60405160405180910390a4505050565b6001816000016000828254019250508190555050565b6060806060806060806040518060400160405280601181526020017f5468697320697320746f6b656e20555249000000000000000000000000000000815250905060606040518060400160405280600a81526020017f746f6b656e206e616d6500000000000000000000000000000000000000000000815250905060606040518060400160405280601181526020017f746f6b656e206465736372697074696f6e000000000000000000000000000000815250905060606040518060400160405280600e81526020017f746f6b656e2063617465676f7279000000000000000000000000000000000000815250905060606040518060400160405280600981526020017f696d6167652075726c0000000000000000000000000000000000000000000000815250905084848484849950995099509950995050505050509091929394565b612e6b612911565b73ffffffffffffffffffffffffffffffffffffffff16612e89611f23565b73ffffffffffffffffffffffffffffffffffffffff1614612f12576040517f08c379a00000000000000000000000000000000000000000000000000000000081526004018080602001828103825260208152602001807f4f776e61626c653a2063616c6c6572206973206e6f7420746865206f776e657281525060200191505060405180910390fd5b612f2c828260405180602001604052806000815250613261565b5050565b612f39826128e6565b612f8e576040517f08c379a000000000000000000000000000000000000000000000000000000000815260040180806020018281038252602c81526020018061416d602c913960400191505060405180910390fd5b80600960008481526020019081526020016000209080519060200190612fb5929190613e7e565b505050565b6000612fc983600001836132d2565b60001c905092915050565b600080600080612fe78660000186613355565b915091508160001c8160001c8090509350935050509250929050565b6000613016846000018460001b846133ee565b60001c90509392505050565b6000613030826000016134e4565b9050919050565b613042848484612ac6565b61304e848484846134f5565b6130a3576040517f08c379a0000000000000000000000000000000000000000000000000000000008152600401808060200182810382526032815260200180613fc66032913960400191505060405180910390fd5b50505050565b606060008214156130f1576040518060400160405280600181526020017f300000000000000000000000000000000000000000000000000000000000000081525090506131d4565b600082905060005b6000821461311b578080600101915050600a828161311357fe5b0491506130f9565b6060816040519080825280601f01601f1916602001820160405280156131505781602001600182028038833980820191505090505b50905060006001830390508593505b600084146131cc57600a848161317157fe5b0660300160f81b8282806001900393508151811061318b57fe5b60200101907effffffffffffffffffffffffffffffffffffffffffffffffffffffffffffff1916908160001a905350600a84816131c457fe5b04935061315f565b819450505050505b919050565b60006131eb836000018360001b61373a565b905092915050565b505050565b600061320a836000018360001b61375d565b905092915050565b6000613224836000018360001b613845565b905092915050565b6000613258846000018460001b8473ffffffffffffffffffffffffffffffffffffffff1660001b6138b5565b90509392505050565b61326b8383613991565b61327860008484846134f5565b6132cd576040517f08c379a0000000000000000000000000000000000000000000000000000000008152600401808060200182810382526032815260200180613fc66032913960400191505060405180910390fd5b505050565b600081836000018054905011613333576040517f08c379a0000000000000000000000000000000000000000000000000000000008152600401808060200182810382526022815260200180613fa46022913960400191505060405180910390fd5b82600001828154811061334257fe5b9060005260206000200154905092915050565b600080828460000180549050116133b7576040517f08c379a000000000000000000000000000000000000000000000000000000000815260040180806020018281038252602281526020018061411f6022913960400191505060405180910390fd5b60008460000184815481106133c857fe5b906000526020600020906002020190508060000154816001015492509250509250929050565b600080846001016000858152602001908152602001600020549050600081141583906134b5576040517f08c379a00000000000000000000000000000000000000000000000000000000081526004018080602001828103825283818151815260200191508051906020019080838360005b8381101561347a57808201518184015260208101905061345f565b50505050905090810190601f1680156134a75780820380516001836020036101000a031916815260200191505b509250505060405180910390fd5b508460000160018203815481106134c857fe5b9060005260206000209060020201600101549150509392505050565b600081600001805490509050919050565b60006135168473ffffffffffffffffffffffffffffffffffffffff16613b85565b6135235760019050613732565b60606136b963150b7a0260e01b613538612911565b888787604051602401808573ffffffffffffffffffffffffffffffffffffffff1673ffffffffffffffffffffffffffffffffffffffff1681526020018473ffffffffffffffffffffffffffffffffffffffff1673ffffffffffffffffffffffffffffffffffffffff16815260200183815260200180602001828103825283818151815260200191508051906020019080838360005b838110156135e85780820151818401526020810190506135cd565b50505050905090810190601f1680156136155780820380516001836020036101000a031916815260200191505b5095505050505050604051602081830303815290604052907bffffffffffffffffffffffffffffffffffffffffffffffffffffffff19166020820180517bffffffffffffffffffffffffffffffffffffffffffffffffffffffff8381831617835250505050604051806060016040528060328152602001613fc6603291398773ffffffffffffffffffffffffffffffffffffffff16613b989092919063ffffffff16565b905060008180602001905160208110156136d257600080fd5b8101908080519060200190929190505050905063150b7a0260e01b7bffffffffffffffffffffffffffffffffffffffffffffffffffffffff1916817bffffffffffffffffffffffffffffffffffffffffffffffffffffffff191614925050505b949350505050565b600080836001016000848152602001908152602001600020541415905092915050565b6000808360010160008481526020019081526020016000205490506000811461383957600060018203905060006001866000018054905003905060008660000182815481106137a857fe5b90600052602060002001549050808760000184815481106137c557fe5b90600052602060002001819055506001830187600101600083815260200190815260200160002081905550866000018054806137fd57fe5b6001900381819060005260206000200160009055905586600101600087815260200190815260200160002060009055600194505050505061383f565b60009150505b92915050565b60006138518383613bb0565b6138aa5782600001829080600181540180825580915050600190039060005260206000200160009091909190915055826000018054905083600101600084815260200190815260200160002081905550600190506138af565b600090505b92915050565b600080846001016000858152602001908152602001600020549050600081141561395c5784600001604051806040016040528086815260200185815250908060018154018082558091505060019003906000526020600020906002020160009091909190915060008201518160000155602082015181600101555050846000018054905085600101600086815260200190815260200160002081905550600191505061398a565b8285600001600183038154811061396f57fe5b90600052602060002090600202016001018190555060009150505b9392505050565b600073ffffffffffffffffffffffffffffffffffffffff168273ffffffffffffffffffffffffffffffffffffffff161415613a34576040517f08c379a00000000000000000000000000000000000000000000000000000000081526004018080602001828103825260208152602001807f4552433732313a206d696e7420746f20746865207a65726f206164647265737381525060200191505060405180910390fd5b613a3d816128e6565b15613ab0576040517f08c379a000000000000000000000000000000000000000000000000000000000815260040180806020018281038252601c8152602001807f4552433732313a20746f6b656e20616c7265616479206d696e7465640000000081525060200191505060405180910390fd5b613abc600083836131f3565b613b0d81600260008573ffffffffffffffffffffffffffffffffffffffff1673ffffffffffffffffffffffffffffffffffffffff16815260200190815260200160002061321290919063ffffffff16565b50613b248183600361322c9092919063ffffffff16565b50808273ffffffffffffffffffffffffffffffffffffffff16600073ffffffffffffffffffffffffffffffffffffffff167fddf252ad1be2c89b69c2b068fc378daa952ba7f163c4a11628f55a4df523b3ef60405160405180910390a45050565b600080823b905060008111915050919050565b6060613ba78484600085613bd3565b90509392505050565b600080836001016000848152602001908152602001600020541415905092915050565b606082471015613c2e576040517f08c379a00000000000000000000000000000000000000000000000000000000081526004018080602001828103825260268152602001806140426026913960400191505060405180910390fd5b613c3785613b85565b613ca9576040517f08c379a000000000000000000000000000000000000000000000000000000000815260040180806020018281038252601d8152602001807f416464726573733a2063616c6c20746f206e6f6e2d636f6e747261637400000081525060200191505060405180910390fd5b600060608673ffffffffffffffffffffffffffffffffffffffff1685876040518082805190602001908083835b60208310613cf95780518252602082019150602081019050602083039250613cd6565b6001836020036101000a03801982511681845116808217855250505050505090500191505060006040518083038185875af1925050503d8060008114613d5b576040519150601f19603f3d011682016040523d82523d6000602084013e613d60565b606091505b5091509150613d70828286613d7c565b92505050949350505050565b60608315613d8c57829050613e41565b600083511115613d9f5782518084602001fd5b816040517f08c379a00000000000000000000000000000000000000000000000000000000081526004018080602001828103825283818151815260200191508051906020019080838360005b83811015613e06578082015181840152602081019050613deb565b50505050905090810190601f168015613e335780820380516001836020036101000a031916815260200191505b509250505060405180910390fd5b9392505050565b6040518060c001604052806060815260200160608152602001600081526020016060815260200160608152602001606081525090565b828054600181600116156101000203166002900490600052602060002090601f016020900481019282601f10613ebf57805160ff1916838001178555613eed565b82800160010185558215613eed579182015b82811115613eec578251825591602001919060010190613ed1565b5b509050613efa9190613f7e565b5090565b828054600181600116156101000203166002900490600052602060002090601f016020900481019282601f10613f3f57805160ff1916838001178555613f6d565b82800160010185558215613f6d579182015b82811115613f6c578251825591602001919060010190613f51565b5b509050613f7a9190613f7e565b5090565b613fa091905b80821115613f9c576000816000905550600101613f84565b5090565b9056fe456e756d657261626c655365743a20696e646578206f7574206f6620626f756e64734552433732313a207472616e7366657220746f206e6f6e20455243373231526563656976657220696d706c656d656e7465724f776e61626c653a206e6577206f776e657220697320746865207a65726f20616464726573734552433732313a207472616e7366657220746f20746865207a65726f2061646472657373416464726573733a20696e73756666696369656e742062616c616e636520666f722063616c6c4552433732313a206f70657261746f7220717565727920666f72206e6f6e6578697374656e7420746f6b656e4552433732313a20617070726f76652063616c6c6572206973206e6f74206f776e6572206e6f7220617070726f76656420666f7220616c6c4552433732313a2062616c616e636520717565727920666f7220746865207a65726f20616464726573734552433732313a206f776e657220717565727920666f72206e6f6e6578697374656e7420746f6b656e456e756d657261626c654d61703a20696e646578206f7574206f6620626f756e64734552433732313a20617070726f76656420717565727920666f72206e6f6e6578697374656e7420746f6b656e4552433732314d657461646174613a2055524920736574206f66206e6f6e6578697374656e7420746f6b656e4552433732313a207472616e73666572206f6620746f6b656e2074686174206973206e6f74206f776e4552433732314d657461646174613a2055524920717565727920666f72206e6f6e6578697374656e7420746f6b656e4552433732313a20617070726f76616c20746f2063757272656e74206f776e65724552433732313a207472616e736665722063616c6c6572206973206e6f74206f776e6572206e6f7220617070726f766564a2646970667358221220b80ef63ab59b4510218d8f4f37454a1d50afd3134ce3e22e434fac75ec1e3b2e64736f6c63430006020033",
  "source": "// SPDX-License-Identifier: MIT\r\npragma solidity >=0.6.0 <0.8.0;\r\n\r\n\r\nimport \"openzeppelin-solidity/contracts/token/ERC721/ERC721.sol\";\r\nimport \"openzeppelin-solidity/contracts/utils/Counters.sol\";\r\nimport \"openzeppelin-solidity/contracts/access/Ownable.sol\";\r\n\r\n\r\ncontract CryptoGogos is Ownable, ERC721 {\r\n    using Counters for Counters.Counter;\r\n    Counters.Counter private _tokenIds; //Counter is a struct in the Counters library\r\n\r\n    string internal _tokenURI;\r\n    address _address;\r\n\r\n    constructor() public ERC721(\"CryptoGogos\", \"CGG\") {\r\n        _address = msg.sender;\r\n    }\r\n\r\n    //Cards is actually to create a mapping of token id to their tokenURI\r\n    struct Cards {\r\n        string name;\r\n        string cat;\r\n        uint256 card_id; //series number in our case\r\n        string description;\r\n        string image_url;\r\n        string tokenuri;\r\n    }\r\n\r\n    Cards[] private card;\r\n\r\n    mapping(uint256 => Cards) public tokeninfo;\r\n\r\n    function drawCard() public {\r\n        _tokenIds.increment();\r\n        uint256 newNftTokenId = _tokenIds.current();\r\n\r\n        Cards memory c;\r\n\r\n        c.card_id = newNftTokenId;\r\n\r\n        (\r\n            string memory tu,\r\n            string memory n,\r\n            string memory d,\r\n            string memory ct,\r\n            string memory i\r\n        ) = getTokenURI();\r\n        c.name = n;\r\n        _tokenURI = tu;\r\n        c.tokenuri = tu;\r\n        c.description = d;\r\n        c.cat = ct;\r\n        c.image_url = i;\r\n        card.push(c);\r\n        tokeninfo[newNftTokenId] = c;\r\n\r\n        _safeMint(_address, newNftTokenId);\r\n        _setTokenURI(newNftTokenId, _tokenURI);\r\n    }\r\n\r\n    //passing supply which is user inputted paramter\r\n    function getTokenURI()\r\n        internal\r\n        pure\r\n        returns (\r\n            string memory,\r\n            string memory,\r\n            string memory,\r\n            string memory,\r\n            string memory\r\n        )\r\n    {\r\n        //send token uri link in this function and return as first parameter.\r\n        string memory t1 = \"This is token URI\";\r\n        string memory n1 = \"token name\";\r\n        string memory d1 = \"token description\";\r\n        string memory _c1 = \"token category\";\r\n        string memory _i = \"image url\";\r\n        return (t1, n1, d1, _c1, _i);\r\n    }\r\n\r\n    function _safeMint(address to, uint256 tokenId)\r\n        internal\r\n        override\r\n        onlyOwner\r\n    {\r\n        _safeMint(to, tokenId, \"\");\r\n    }\r\n\r\n    function viewCategory(uint256 _tokenid)\r\n        public\r\n        view\r\n        returns (string memory)\r\n    {\r\n        return (tokeninfo[_tokenid].cat);\r\n    }\r\n\r\n    function viewNumberofCards() public view returns (uint256) {\r\n        return _tokenIds.current();\r\n    }\r\n\r\n    function viewName(uint256 _tokenid) public view returns (string memory) {\r\n        return (tokeninfo[_tokenid].name);\r\n    }\r\n\r\n    function viewDescription(uint256 _tokenid)\r\n        public\r\n        view\r\n        returns (string memory)\r\n    {\r\n        return (tokeninfo[_tokenid].description);\r\n    }\r\n\r\n    function viewImageUrl(uint256 _tokenid)\r\n        public\r\n        view\r\n        returns (string memory)\r\n    {\r\n        return (tokeninfo[_tokenid].image_url);\r\n    }\r\n\r\n    function viewtokenURI(uint256 _tokenid)\r\n        public\r\n        view\r\n        returns (string memory)\r\n    {\r\n        return (tokeninfo[_tokenid].image_url);\r\n    }\r\n\r\n    function totalSupply() public view override returns (uint256) {\r\n        return _tokenIds.current();\r\n    }\r\n}\r\n",
  "sourcePath": "F:/Learning/Practice/CardNFT/contracts/cards.sol",
  "compiler": {
    "name": "solc",
    "version": "0.6.2+commit.bacdbe57.Emscripten.clang"
  },
  "schemaVersion": "3.3.4",
  "updatedAt": "2021-03-31T15:27:06.944Z",
  "networkType": "ethereum",
  "devdoc": {
    "methods": {
      "approve(address,uint256)": {
        "details": "See {IERC721-approve}."
      },
      "balanceOf(address)": {
        "details": "See {IERC721-balanceOf}."
      },
      "baseURI()": {
        "details": "Returns the base URI set via {_setBaseURI}. This will be automatically added as a prefix in {tokenURI} to each token's URI, or to the token ID if no specific URI is set for that token ID."
      },
      "getApproved(uint256)": {
        "details": "See {IERC721-getApproved}."
      },
      "isApprovedForAll(address,address)": {
        "details": "See {IERC721-isApprovedForAll}."
      },
      "name()": {
        "details": "See {IERC721Metadata-name}."
      },
      "owner()": {
        "details": "Returns the address of the current owner."
      },
      "ownerOf(uint256)": {
        "details": "See {IERC721-ownerOf}."
      },
      "renounceOwnership()": {
        "details": "Leaves the contract without owner. It will not be possible to call `onlyOwner` functions anymore. Can only be called by the current owner.     * NOTE: Renouncing ownership will leave the contract without an owner, thereby removing any functionality that is only available to the owner."
      },
      "safeTransferFrom(address,address,uint256)": {
        "details": "See {IERC721-safeTransferFrom}."
      },
      "safeTransferFrom(address,address,uint256,bytes)": {
        "details": "See {IERC721-safeTransferFrom}."
      },
      "setApprovalForAll(address,bool)": {
        "details": "See {IERC721-setApprovalForAll}."
      },
      "supportsInterface(bytes4)": {
        "details": "See {IERC165-supportsInterface}.     * Time complexity O(1), guaranteed to always use less than 30 000 gas."
      },
      "symbol()": {
        "details": "See {IERC721Metadata-symbol}."
      },
      "tokenByIndex(uint256)": {
        "details": "See {IERC721Enumerable-tokenByIndex}."
      },
      "tokenOfOwnerByIndex(address,uint256)": {
        "details": "See {IERC721Enumerable-tokenOfOwnerByIndex}."
      },
      "tokenURI(uint256)": {
        "details": "See {IERC721Metadata-tokenURI}."
      },
      "transferFrom(address,address,uint256)": {
        "details": "See {IERC721-transferFrom}."
      },
      "transferOwnership(address)": {
        "details": "Transfers ownership of the contract to a new account (`newOwner`). Can only be called by the current owner."
      }
    }
  },
  "userdoc": {
    "methods": {}
  }
}